:0C0000000C94DE030C9400000C94000033
:10000C000C9400000C9400000C9400000C94000064
:10001C000C9400000C9400000C9459180C940000E3
:10002C000C9400000C9400000C9411040C9400002F
:10003C000C9470040C9400000C9400000C940000C0
:10004C000C9400000C9400000000C1C081C1400160
:10005C0001C3C003800241C201C6C006800741C76C
:10006C000005C1C581C4400401CCC00C800D41CD3C
:10007C00000FC1CF81CE400E000AC1CA81CB400B0C
:10008C0001C9C009800841C801D8C018801941D9DC
:10009C00001BC1DB81DA401A001EC1DE81DF401F6C
:1000AC0001DDC01D801C41DC0014C1D481D540157C
:1000BC0001D7C017801641D601D2C012801341D38C
:1000CC000011C1D181D0401001F0C030803141F11C
:1000DC000033C1F381F240320036C1F681F740376C
:1000EC0001F5C035803441F4003CC1FC81FD403D3C
:1000FC0001FFC03F803E41FE01FAC03A803B41FB0C
:10010C000039C1F981F840380028C1E881E940295B
:10011C0001EBC02B802A41EA01EEC02E802F41EF6B
:10012C00002DC1ED81EC402C01E4C024802541E57B
:10013C000027C1E781E640260022C1E281E340238B
:10014C0001E1C021802041E001A0C060806141A19B
:10015C000063C1A381A240620066C1A681A740676B
:10016C0001A5C065806441A4006CC1AC81AD406D3B
:10017C0001AFC06F806E41AE01AAC06A806B41AB0B
:10018C000069C1A981A840680078C1B881B94079DB
:10019C0001BBC07B807A41BA01BEC07E807F41BF6B
:1001AC00007DC1BD81BC407C01B4C074807541B57B
:1001BC000077C1B781B640760072C1B281B340738B
:1001CC0001B1C071807041B00050C190819140511B
:1001DC000193C053805241920196C056805741976B
:1001EC000055C19581944054019CC05C805D419D3B
:1001FC00005FC19F819E405E005AC19A819B405B0B
:10020C000199C059805841980188C048804941895A
:10021C00004BC18B818A404A004EC18E818F404F6A
:10022C00018DC04D804C418C0044C184818540457A
:10023C000187C047804641860182C042804341838A
:10024C000041C181818040401027E80364000A000E
:10025C0001000010000110000100000084F5C2C173
:10026C00B18988E58081A0988ED08AAA8CB0D5A857
:10027C009EE8F8D8A2FA9ADCCC91FB0001FF04F1BD
:10028C00090015000E0016001B00210010000E00C6
:10029C0016002100210017000500050013000100C5
:1002AC00180019001E001400170019001E00110080
:1002BC0001000A001E00140017000A001E001100A5
:1002CC0001002100010016001800210021000D0082
:1002DC0018002100210005001A0021002100010056
:1002EC000D000B000A001B000D00170005001E007E
:1002FC000100170005001E000200170005001E007B
:10030C000300170005001E000400170005001E0066
:10031C000500170005001E000600170005001E0052
:10032C000700170005001E000800050013001E0042
:10033C000100050013001E000200050013001E0042
:10034C000300050013001E000400050013001E002E
:10035C000500050013001E000600050013001E001A
:10036C000700050013001E000800190014001E00F1
:10037C000100190014001E000200190014001E00D8
:10038C000300190014001E000400190014001E00C4
:10039C000500190014001E000600190014001E00B0
:1003AC000700190014001E000800190011001E009F
:1003BC000100190011001E000200190011001E009E
:1003CC000300190011001E000400190011001E008A
:1003DC000500190011001E000600190011001E0076
:1003EC000700190011001E0008000A0014001E006E
:1003FC0001000A0014001E0002000A0014001E0076
:10040C0003000A0014001E0004000A0014001E0061
:10041C0005000A0014001E0006000A0014001E004D
:10042C0007000A0014001E0008000A0011001E003C
:10043C0001000A0011001E0002000A0011001E003B
:10044C0003000A0011001E0004000A0011001E0027
:10045C0005000A0011001E0006000A0011001E0013
:10046C0007000A0011001E000800010016001E0003
:10047C000100010016001E000200010016001E0003
:10048C000300010016001E000400010016001E00EF
:10049C000500010016001E000600010016001E00DB
:1004AC000700010016001E0008000D0018001E00B9
:1004BC0001000D0018001E0002000D0018001E00A7
:1004CC0003000D0018001E0004000D0018001E0093
:1004DC0005000D0018001E0006000D0018001E007F
:1004EC0007000D0018001E0008001B001600050078
:1004FC0013000500130001001800210018001A0059
:10050C000100210018001A00020021002100210026
:10051C0012002100210021001300210021002100E4
:10052C0019002100210021000500210021002100DB
:10053C001A001B00170014001A0004001E00020011
:10054C00210020000600130001002000020013000F
:10055C0003001F000400130001000100240002002E
:10056C000C0014001E0001000C0014001E00020000
:10057C000C0014001E0003000C0014001E000400EC
:10058C000C0014001E0005000C0014001E000600D8
:10059C000C0014001E0007000C0014001E000800C4
:1005AC0022000000000001000000220000000100F9
:1005BC00000000002200010000000000000001000B
:1005CC001E001E001E001E00010021002100210043
:1005DC003CDFE0E72AF030F80000A3071E0F62169C
:1005EC00821D7724432BE7316038B43EE344E34A61
:1005FC00CD508E56C05D000002010F02210336045F
:10060C004C056106750789089D09B30ACE0BEE0CE3
:10061C00170E490F0000CA009A0166022E03F70359
:10062C00C504960568063C071008E608BB098F0A46
:10063C00610B310C000DCB0D950E5B0F2010E110F2
:10064C00A0115C121413C81379142615000028018C
:10065C0087021104BD0583076109500B500D5D0F16
:10066C0077119D13CF150D18571AAC1C0E1F7B213B
:10067C00F5237A260A29A52B4A2EF730AC33663699
:10068C002539E63BA83E6A412B44E846A149544C27
:10069C00FE4E8D5100002B0186020504A105520768
:1006AC001309E20ABB0C9E0E89107C127714791682
:1006BC008318961AB11CD51E012136237325B82731
:1006CC00052A572CAF2E0A316733C6352538823AA6
:1006DC00DE3C363F8941D6431B464748D0FD30FEB1
:1006EC00AEFE4AFF0000CC00AC019E02A103B10497
:1006FC00CE05F6060000000000000000000000001F
:10070C0000000000000000000000000000000000DD
:10071C00000002000200660225008C02680207003D
:10072C00C1028E024700C902960217001103DE02B5
:10073C003F002903F6023F00690336033F00A9037B
:10074C0076033F00E903B6033F002904F6033F009C
:10075C00690436043F00A90476043F00E904B6049A
:10076C000F003905F6044500490506051F009105E3
:10077C004C053F00B1056C051F00F105AC050700E9
:10078C001106CC0507001906D40526002106DC0548
:10079C001E004706020638006506200648009D0626
:1007AC0058064800E506A00618002D07E8060000CC
:1007BC00F894EE27ECBBF1E0F5BFE5BF8DE0A2E0CD
:1007CC00BB27ED938A95E9F780E098E0A0E6ED93DE
:1007DC000197E9F7EEE1F7E085919591009761F0CB
:1007EC00A591B59105901590BF01F00105900D9262
:1007FC000197E1F7FB01F0CFEFE5EDBFE8E0EEBFCD
:10080C00C0E6D1E00C946E23EFEFEBBBE0E0E5BB70
:10081C00C698C7980895AA93BA93EA93FA93EFB738
:10082C00EA930E94CB261BB10CB1E12FEC7109F0BD
:10083C0047C0E0914C02EF5FE0934C02E150F0E0D6
:10084C00E85CFD4F0083A0914C02A43119F4E0E068
:10085C00E0934C02A0914E02AF5FA0934E02A431E4
:10086C0029F4E0E0E0934E02689422F8A0914E0245
:10087C00A13061F4E0918A01A0913802EA1729F0C5
:10088C00E0E0E0934C02E0934E021AC0A0914E02BD
:10089C00A830B0F030E0383060F4A32FB0E0A15BAA
:1008AC00BD4FE32FF0E0E85CFD4FE081EC933F5F40
:1008BC00F2CFE0E0E0934C02E0934E02689420F813
:1008CC000E94D2262496E991EFBFF991E991B99152
:1008DC00A9911895AA93EA93FA93EFB7EA93E0914A
:1008EC008B02E030A9F0E150E0938B02E0918A0298
:1008FC00EF5FE0938A02E150F0E0E75AFD4FE081B0
:10090C00ECB9A0918A02A03319F4E0E0E0938A02DA
:10091C00E991EFBFF991E991A9911895AA93A0914A
:10092C008B02A033E1F3E0918B02E03011F45D997E
:10093C0018C0E0918902EF5FE0938902E150F0E08A
:10094C00E75AFD4FA881A083A0918902A03319F426
:10095C00E0E0E0938902E0918B02EF5FE0938B0281
:10096C0002C0E881ECB921960895BA93AA930E942B
:10097C00CB262FEF3FEFEC81FD813197EC83FD838C
:10098C003196A9F0AE81BF81ED91AE83BF83E22792
:10099C001E2F232F3327A4E5B0E0F0E0EE0FFF1F4E
:1009AC00EA0FFB1F0E9480262E273F27E4CFF90178
:1009BC000E94D22628960895E0E0E0934E02E09340
:1009CC004D02E0934D02E0938B02E0938902E09399
:1009DC008A0208950E94CB2620E030E000E010E06F
:1009EC000830E0E01E07CCF4F901A5E4B7E0EE0F07
:1009FC00FF1FEA0FFB1F0F01F801A8E9B1E0EE0F92
:100A0C00FF1FAE0FBF1F0E947726D001ED93FC9302
:100A1C002F5F3F4F0F5F1F4FE3CF00E010E0083018
:100A2C00E0E01E07CCF4F901A5E4B7E0EE0FFF1FE0
:100A3C00EA0FFB1F0F01F801A8EAB1E0EE0FFF1F50
:100A4C00AE0FBF1F0E947726D001ED93FC932F5F52
:100A5C003F4F0F5F1F4FE3CF00E010E00830E0E0A6
:100A6C001E07CCF4F901A5E4B7E0EE0FFF1FEA0F67
:100A7C00FB1F0F01F801A8EEB1E0EE0FFF1FAE0F48
:100A8C00BF1F0E947726D001ED93FC932F5F3F4F41
:100A9C000F5F1F4FE3CF00E010E00830E0E01E07CF
:100AAC00CCF4F901A5E4B7E0EE0FFF1FEA0FFB1F32
:100ABC000F01F801A8EDB1E0EE0FFF1FAE0FBF1F45
:100ACC000E947726D001ED93FC932F5F3F4F0F5F71
:100ADC001F4FE3CF00E010E00830E0E01E07CCF43D
:100AEC00F901A5E4B7E0EE0FFF1FEA0FFB1F0F01A2
:100AFC00F801A8ECB1E0EE0FFF1FAE0FBF1F0E9474
:100B0C007726D001ED93FC932F5F3F4F0F5F1F4F64
:100B1C00E3CF00E010E00830E0E01E07CCF4F90170
:100B2C00A5E4B7E0EE0FFF1FEA0FFB1F0F01F80162
:100B3C00A8EBB1E0EE0FFF1FAE0FBF1F0E94772690
:100B4C00D001ED93FC932F5F3F4F0F5F1F4FE3CF0F
:100B5C0000E010E00830E0E01E07CCF4F901A5E459
:100B6C00B7E0EE0FFF1FEA0FFB1F0F01F801A8E023
:100B7C00B2E0EE0FFF1FAE0FBF1F0E947726D00111
:100B8C00ED93FC932F5F3F4F0F5F1F4FE3CFF901A6
:100B9C00A5E4B7E0EE0FFF1FEA0FFB1FA091880141
:100BAC00B0918901A083B18320E030E000E010E037
:100BBC000830E0E01E070CF058C0F801A9E2B5E0DF
:100BCC00EE0FFF1FAE0FBF1F0E9477263097E1F08C
:100BDC00E130A0E0FA0751F4F901A7EBB7E0EE0F12
:100BEC00FF1FAE0FBF1FE0E2FEE420C0E230A0E02A
:100BFC00FA0751F4F901A7EBB7E0EE0FFF1FAE0FA8
:100C0C00BF1FE0EFF5E512C0F901A7EBB7E0EE0F5F
:100C1C00FF1FEA0FFB1F0F01F801A8E7B1E0EE0F71
:100C2C00FF1FAE0FBF1F0E947726D001ED93FC93E0
:100C3C00F801A8EAB1E0EE0FFF1FAE0FBF1F0E9434
:100C4C007726E130A0E0FA0759F4F901A7EBB7E0F9
:100C5C00EE0FFF1FAE0FBF1FE0ECFDE5ED93FC9315
:100C6C002F5F3F4F0F5F1F4FA3CF00E010E0083006
:100C7C00E0E01E070CF041C0F801A8E0B2E0EE0F76
:100C8C00FF1FAE0FBF1F0E947726309751F4F9015A
:100C9C00A7EBB7E0EE0FFF1FAE0FBF1FE8EEF3E0C0
:100CAC0025C0E130A0E0FA0751F4F901A7EBB7E059
:100CBC00EE0FFF1FAE0FBF1FE4E6F0E017C0E230EF
:100CCC00A0E0FA0751F4F901A7EBB7E0EE0FFF1F14
:100CDC00AE0FBF1FEAE0F0E009C0F901A7EBB7E0E7
:100CEC00EE0FFF1FAE0FBF1FE1E0F0E0ED93FC93A2
:100CFC002F5F3F4F0F5F1F4FBACFF901A7EBB7E044
:100D0C00EE0FFF1FAE0FBF1FE0918A01F0918B0118
:100D1C00ED93FC932F5F3F4FF901A7EBB7E0EE0F7C
:100D2C00FF1FAE0FBF1FE0918C01F0918D01ED9371
:100D3C00FC932F5F3F4FF901A7EBB7E0EE0FFF1FBE
:100D4C00AE0FBF1FF201E095F095ED93FC932F5F72
:100D5C003F4FF901A7EBB7E0EE0FFF1FAE0FBF1F20
:100D6C00F301E095F095ED93FC932F5F3F4F0E94BC
:100D7C00D22624960895BA93AA93A0970E94CB26C4
:100D8C0021E030E000E010E00830E0E01E070CF05D
:100D9C0003C1F801A8EFB1E0EE0FFF1FAE0FBF1FAC
:100DAC000E9477263097A9F4F801DE015496EE0FD5
:100DBC00FF1FAE0FBF1FE1E3F8EFED93FC93F801BB
:100DCC00DE011496EE0FFF1FAE0FBF1FE8E5FBE12F
:100DDC00DEC0E130A0E0FA07A9F4F801DE01549678
:100DEC00EE0FFF1FAE0FBF1FE9E3FFEFED93FC9378
:100DFC00F801DE011496EE0FFF1FAE0FBF1FECEBD8
:100E0C00F2E0C5C0E230A0E0FA07A9F4F801DE0177
:100E1C005496EE0FFF1FAE0FBF1FE0E0F0E0ED9316
:100E2C00FC93F801DE011496EE0FFF1FAE0FBF1FEF
:100E3C00ECEBF2E0ACC0E330A0E0FA07A9F4F80167
:100E4C00DE015496EE0FFF1FAE0FBF1FE0E0F0E087
:100E5C00ED93FC93F801DE011496EE0FFF1FAE0F1D
:100E6C00BF1FE4E1F5E093C0E430A0E0FA0721F005
:100E7C00E530A0E0FA07A9F4F801DE015496EE0F74
:100E8C00FF1FAE0FBF1FE0E0F0E0ED93FC93F80105
:100E9C00DE011496EE0FFF1FAE0FBF1FE4EAF6E063
:100EAC0076C0E630A0E0FA07A9F4F801DE0154960A
:100EBC00EE0FFF1FAE0FBF1FE8E3FFEFED93FC93A8
:100ECC00F801DE011496EE0FFF1FAE0FBF1FECE210
:100EDC00F1E05DC0E730A0E0FA0729F0E830A0E0CF
:100EEC00FA0709F056C0F801DE015496EE0FFF1F09
:100EFC00EA0FFB1FFF93EF93F801A8EBB1E0EE0FA5
:100F0C00FF1FAE0FBF1F6D917C91F801A8EBB1E0F4
:100F1C00EE0FFF1FAE0FBF1F0E947726A4E1B0E0BB
:100F2C000E94FC25DF01E4E6F0E00E941926DF01B7
:100F3C00FB01EA1BFB0BAF91BF91ED93FC93F80106
:100F4C00DE011496EE0FFF1FEA0FFB1FFF93EF93CA
:100F5C00F801A8ECB1E0EE0FFF1FAE0FBF1F6D91B3
:100F6C007C91F801A8ECB1E0EE0FFF1FAE0FBF1F94
:100F7C000E947726A4E1B0E00E94FC25DF01E4E6A4
:100F8C00F0E00E941926E60FF71FAF91BF91ED9389
:100F9C00FC930F5F1F4FF8CEAEA1BFA1189734F58D
:100FAC00ACA1BDA1A931ECEFBE0724F0A83EE3E053
:100FBC00BE070CF01AC0EEA1FFA1A0E1B0E0EE0F4D
:100FCC00FF1FEA0FFB1F0F01EEA1FFA1A8E9B1E083
:100FDC00EE0FFF1FAE0FBF1FECA1FDA1ED93FC9315
:100FEC00D0010E94B02620E030E05EC1AEA1BFA1CE
:100FFC00189724F0AEA1BFA150970CF024C0ADA15E
:10100C00AA2322F0ACA1BDA112970CF01BC0EEA13B
:10101C00FFA13897BF01A0E2B0E0EE0FFF1FEA0F6F
:10102C00FB1F0F01FB01A8EAB1E0EE0FFF1FAE0F93
:10103C00BF1FECA1FDA1ED93FC93D0010E94B02643
:10104C0020E030E031C1AEA1BFA1509724F0AEA199
:10105C00BFA158970CF03CC0EEA1FFA170970F01F7
:10106C00DE015496EE0FFF1FAE0FBF1F0E947726B6
:10107C00ACA1BDA1AE17BF0774F0F001DE01149650
:10108C00EE0FFF1FAE0FBF1F0E947726ACA1BDA1B4
:10109C00EA17FB070CF41BC0EEA1FFA17097BF0170
:1010AC00A0E6B0E0EE0FFF1FEA0FFB1F0F01FB01E4
:1010BC00A8EEB1E0EE0FFF1FAE0FBF1FECA1FDA11C
:1010CC00ED93FC93D0010E94B02620E030E0ECC000
:1010DC00AEA1BFA1589724F0AEA1BFA190970CF080
:1010EC003CC0EEA1FFA178970F01DE015496EE0FE4
:1010FC00FF1FAE0FBF1F0E947726ACA1BDA1AE177C
:10110C00BF0774F0F001DE011496EE0FFF1FAE0F57
:10111C00BF1F0E947726ACA1BDA1EA17FB070CF4F8
:10112C001BC0EEA1FFA17897BF01A0E5B0E0EE0FC8
:10113C00FF1FEA0FFB1F0F01FB01A8EDB1E0EE0F43
:10114C00FF1FAE0FBF1FECA1FDA1ED93FC93D001CF
:10115C000E94B02620E030E0A7C0AEA1BFA19097BE
:10116C0024F0AEA1BFA198970CF027C0ACA1BDA1F3
:10117C00A133E8EFBE0724F0A031E7E2BE070CF084
:10118C001BC0EEA1FFA1B097BF01A0E4B0E0EE0F31
:10119C00FF1FEA0FFB1F0F01FB01A8ECB1E0EE0FE4
:1011AC00FF1FAE0FBF1FECA1FDA1ED93FC93D0016F
:1011BC000E94B02620E030E077C0AEA1BFA1989786
:1011CC0024F0AEA1BFA1D0970CF027C0ACA1BDA15B
:1011DC00A133E8EFBE0724F0A031E7E2BE070CF024
:1011EC001BC0EEA1FFA1B897BF01A0E3B0E0EE0FCA
:1011FC00FF1FEA0FFB1F0F01FB01A8EBB1E0EE0F85
:10120C00FF1FAE0FBF1FECA1FDA1ED93FC93D0010E
:10121C000E94B02620E030E047C0AEA1BFA1D0971D
:10122C0024F0AEA1BFA1D8970CF024C0ADA1AA2385
:10123C0022F0ACA1BDA114970CF01BC0EEA1FFA134
:10124C00F097BF01A0E8B0E0EE0FFF1FEA0FFB1F05
:10125C000F01FB01A8E0B2E0EE0FFF1FAE0FBF1FA6
:10126C00ECA1FDA1ED93FC93D0010E94B02620E0EF
:10127C0030E01AC0AEA1BFA1D897B1F4ADA1AA239A
:10128C0032F0ACA1BDA1A436E0E0BE070CF00CC05E
:10129C00ECA1FDA1E0938801F0938901A0E0B0E0FE
:1012AC000E94B02620E030E0F9010E94D226A896D8
:1012BC000895AE970E94C92640E050E0E09150029C
:1012CC00F0E0E330A0E0FA0709F0C8C00091520248
:1012DC001127D8011196DA9718F042E050E01DC2A0
:1012EC00209154023327D901A00FB11FDB9720F4B2
:1012FC002131E0E03E071CF043E050E00EC2E8E391
:10130C00F2E0FA93EA93A6E0B0E02FDBEA87FB87E2
:10131C00A0913E02F070B0E0EA17FB0741F4A091F7
:10132C003F02EB85F070B0E0EA17FB0719F043E0E1
:10133C0050E0F3C140E050E0929AE0914F02EC870C
:10134C00E0915002ED87E22FEE0FEE87E3E0F0E044
:10135C00E887F987A2E0B0E00E942724E0E0EA8762
:10136C00EB87AA85BB85A217B307C8F5E885F98575
:10137C00DE011C96EA0FFB1F0F01EA85FB85E00FCF
:10138C00F11FA5E4B7E0EE0FFF1FAE0FBF1F0E94C9
:10139C0077260E94C525D001EC93E885F985319616
:1013AC00E887F987DE011C96EA0FFB1F0F01EA851F
:1013BC00FB85E00FF11FA5E4B7E0EE0FFF1FAE0FAA
:1013CC00BF1FEC91D001EC93E885F9853196E88745
:1013DC00F987EA85FB853196EA87FB87C2CFFE0148
:1013EC003C96FA93EA93F901EE0FFF1F3396DF0157
:1013FC00BCDAEA87FB87E885F985DE011C96AE0F1F
:10140C00BF1FEA85EC93E885F9853196DE011C96C1
:10141C00AE0FBF1FEB85EC93F894E0E0EA87EB8707
:10142C00EE85F0E03596AA85BB85AE17BF0770F444
:10143C00EA85FB85DE011C96AE0FBF1FAC916EDA00
:10144C00EA85FB853196EA87FB87EACF7894A2E39D
:10145C00B0E00E9427249298AFDA5FC1E430A0E09C
:10146C00FA0709F0C8C0009152021127D801119651
:10147C00559718F042E050E050C1209154023327A8
:10148C00D901A00FB11F559720F42131E0E03E07A0
:10149C001CF043E050E041C1E8E3F2E0FA93EA9338
:1014AC00A6E0B0E062DAEA87FB87A0913E02F0701A
:1014BC00B0E0EA17FB0741F4A0913F02EB85F07016
:1014CC00B0E0EA17FB0719F043E050E026C140E01A
:1014DC0050E0929AE0914F02EC87E0915002ED8738
:1014EC00E22FEE0FEE87E3E0F0E0E887F987A2E069
:1014FC00B0E00E942724E0E0EA87EB87AA85BB8551
:10150C00A217B307C8F5E885F985DE011C96EA0F2A
:10151C00FB1F0F01EA85FB85E00FF11FA7EBB7E07E
:10152C00EE0FFF1FAE0FBF1F0E9477260E94C5252E
:10153C00D001EC93E885F9853196E887F987DE01CF
:10154C001C96EA0FFB1F0F01EA85FB85E00FF11FCC
:10155C00A7EBB7E0EE0FFF1FAE0FBF1FEC91D00152
:10156C00EC93E885F9853196E887F987EA85FB8560
:10157C003196EA87FB87C2CFFE013C96FA93EA9339
:10158C00F901EE0FFF1F3396DF01EFD9EA87FB87D6
:10159C00E885F985DE011C96AE0FBF1FEA85EC933A
:1015AC00E885F9853196DE011C96AE0FBF1FEB85E1
:1015BC00EC93F894E0E0EA87EB87EE85F0E0359663
:1015CC00AA85BB85AE17BF0770F4EA85FB85DE01E3
:1015DC001C96AE0FBF1FAC91A1D9EA85FB85319645
:1015EC00EA87FB87EACF7894A2E3B0E00E94272435
:1015FC009298E2D992C0E630A0E0FA0709F08BC0CD
:10160C00009152021127D8011196DB9718F042E095
:10161C0050E083C0A0915302B0E0E0E0F1E00E9402
:10162C00FC25DF01E0915402F0E0EA0FFB1F9F0163
:10163C002133E8EF3E0724F02031E7E23E071CF0AF
:10164C0043E050E06AC01A930A93D90194DBEE830D
:10165C00FF83AE81BF81119719F447E050E05DC064
:10166C00E8E3F2E0FA93EA93A6E0B0E00E94BB0450
:10167C00EA87FB87A0913E02F070B0E0EA17FB0707
:10168C0041F4A0913F02EB85F070B0E0EA17FB0744
:10169C0019F043E050E041C040E050E0929AE091F4
:1016AC004F02EC87E0915002ED87E0915102EE87FA
:1016BC00E0915202EF87E0915302E88BE0915402E3
:1016CC00E98BE0915502EA8BE0915602EB8BA2E09C
:1016DC00B0E00E942724F894E0E0EA87EB87AA8523
:1016EC00BB85189778F4EA85FB85DE011C96AE0F56
:1016FC00BF1FAC910E949404EA85FB853196EA8762
:10170C00FB87EDCF7894A2E3B0E00E942724929857
:10171C000E94E20402C041E050E0042E052AC1F10F
:10172C00929AE0914F02EC87E0915002E068ED87CD
:10173C00FE013E964083FE013C96FA93EA93A3E0A9
:10174C00B0E00E94BB04EA87FB87EA85EF87EB8554
:10175C00E88BF894E0E0EA87EB87AA85BB851597C0
:10176C0078F4EA85FB85DE011C96AE0FBF1FAC91A9
:10177C000E949404EA85FB853196EA87FB87EDCFBE
:10178C007894A2E3B0E00E94272492980E94E2048D
:10179C000E94D026E49608951A930A9300E010E074
:1017AC000830E0E01E077CF5F801A8EBB1E0EE0F85
:1017BC00FF1FAE0FBF1FE8E3FFEFED93FC93F801A3
:1017CC00A8ECB1E0EE0FFF1FAE0FBF1FECE2F1E093
:1017DC00ED93FC93F801A8E0B2E0EE0FFF1FAE0F03
:1017EC00BF1FE3E0F0E0ED93FC93F801A8EFB1E04C
:1017FC00EE0FFF1FAE0FBF1FE6E0F0E0ED93FC9382
:10180C000F5F1F4FCDCF0991199108950E94DB23D3
:10181C00A2ED0E940F24A1E0B0E00E942724A8E9C9
:10182C000E940F240E94EA2308950E94C9260E9458
:10183C00DB23A3ED0E940F240E2F1127A1E00E94A1
:10184C00F4230E2F1127A0E00E94F4232E2F332710
:10185C000E94EA23F02FE0E0E20FF31FAF010E9499
:10186C00D026269608950E948E262A978AE0A0E01C
:10187C00B0E0E0E0F7E00E94D7260E94C92600E025
:10188C0010E040E050E0AC89BD898E899F89E88DDD
:10189C00F98D6A8D7B8D0E94CA247F936F93FF9381
:1018AC00EF93AC89BD898E899F89E889F9896A890A
:1018BC007B890E94CA24AF91BF918F919F910E9406
:1018CC006F25A0E0BCE08DE296E40E942125E8871C
:1018DC00F9876A877B870E946024AF0120E030E0A3
:1018EC002231E0E03E07E4F4F901A1E2B6E0EE0FAC
:1018FC00FF1FAE0FBF1F0E947726E417F50754F4A5
:10190C00D901AA0FBB1FAD5DB94F0E947726E41712
:10191C00F5070CF402C0890103C02F5F3F4FE0CFE5
:10192C00F801A1E2B6E0EE0FFF1FAE0FBF1F0E9441
:10193C0077260E94CA250E949724A885B9858A8596
:10194C009B850E9493260E94CA24A0E0B0E08AEFF7
:10195C0093E40E9421257F936F93FF93EF93D8011B
:10196C00AA0FBB1FAD5DB94F0E9477260E94CA25F6
:10197C000E9497247F936F93FF93EF93F801A1E25A
:10198C00B6E0EE0FFF1FAE0FBF1F0E9477260E941E
:10199C00CA250E949724AF91BF918F919F910E946D
:1019AC0093260E94CA24AF91BF918F919F910E9460
:1019BC006F257F936F93FF93EF93F80134970E94F9
:1019CC00CA25A4EFB1E080E090E0D1C00E948E2641
:1019DC002A978AE0A0E0B0E0EAE0F7E00E94D72680
:1019EC000E94C92600E010E040E050E0AC89BD89BF
:1019FC008E899F89E88DF98D6A8D7B8D0E94CA2412
:101A0C00A0E0B0E48CE995E40E9421257F936F93CC
:101A1C00FF93EF93AC89BD898E899F89E889F989F9
:101A2C006A897B890E94CA24AF91BF918F919F9143
:101A3C000E946F25E887F9876A877B87A091370713
:101A4C00B0913807F6010E94CA250E94CF250E944A
:101A5C000126DF01CB01E2E3F0E060E070E00E94E0
:101A6C004326A885B9858A859B850E9497240E9468
:101A7C00D124E887F9876A877B870E946024AF01AD
:101A8C0020E030E02D30E0E03E07E4F4F901ADE277
:101A9C00B7E0EE0FFF1FAE0FBF1F0E947726E417B3
:101AAC00F50754F4D901AA0FBB1FA15DB84F0E94D2
:101ABC007726E417F5070CF402C0890103C02F5FE9
:101ACC003F4FE0CFF801ADE2B7E0EE0FFF1FAE0FD6
:101ADC00BF1F0E9477260E94CA250E949724A885C2
:101AEC00B9858A859B850E9493260E94CA24A0E012
:101AFC00B0E088E492E40E9421257F936F93FF93DA
:101B0C00EF93D801AA0FBB1FA15DB84F0E94772697
:101B1C000E94CA250E9497247F936F93FF93EF93A3
:101B2C00F801ADE2B7E0EE0FFF1FAE0FBF1F0E9432
:101B3C0077260E94CA250E949724AF91BF918F915E
:101B4C009F910E9493260E94CA24AF91BF918F91BE
:101B5C009F910E946F257F936F93FF93EF93F801F2
:101B6C0034970E94CA25A2E3B0E080E090E00E9486
:101B7C000126AF91BF918F919F910E9497240E9453
:101B8C00D124DE011C960E9460240E947B26EC85E9
:101B9C00FD85EE83FF830E94D0266C960895FF92FC
:101BAC000E948E262A978AE0A0E0B0E0E4E1F7E0FC
:101BBC000E94D7260E94C92600E010E040E050E0C9
:101BCC00AC8DBD8D8E8D9F8DE8A1F9A16AA17BA1F5
:101BDC000E94CA24DF01CB01E889F9896A897B89D3
:101BEC000E9497240E9421257F936F93FF93EF937C
:101BFC00AC8DBD8D8E8D9F8DE88DF98D6A8D7B8D15
:101C0C000E94CA24AF91BF918F919F910E946F2522
:101C1C00E887F9876A877B87EC89FD89A281B38184
:101C2C00F6010E94CA25882799270E940126DF0108
:101C3C00CB01E2E3F0E060E070E00E944326A8856F
:101C4C00B9858A859B850E9497240E94D124E887B8
:101C5C00F9876A877B870E945E24AF0155232AF49B
:101C6C000E94B425AF01689401C0E894F0F820E01C
:101C7C0030E0EE89FF89E217F307FCF0F901AC893B
:101C8C00BD89EE0FFF1FAE0FBF1F0E947726E41712
:101C9C00F50768F4F901AC89BD89EE0FFF1FAE0F93
:101CAC00BF1F12960E947726E417F50708F402C0AE
:101CBC00890103C02F5F3F4FDCCFF801AC89BD8990
:101CCC00EE0FFF1FAE0FBF1F0E947726A885B985A8
:101CDC008A859B85662777270E9497240E949326E6
:101CEC000E94CA24A0E0B0E088E492E40E9421257E
:101CFC007F936F93FF93EF93F801AC89BD89EE0F3F
:101D0C00FF1FAE0FBF1F12960D901C90F801AC89EF
:101D1C00BD89EE0FFF1FAE0FBF1F0E947726DF019C
:101D2C00F001EA1BFB0BAF91BF918F919F9166273E
:101D3C0077270E9497240E946F257F936F93FF93C0
:101D4C00EF93D8010E94CF25E2E3F0E060E070E071
:101D5C000E940126AF91BF918F919F910E94972471
:101D6C000E94D124DE011C960E9460240E947B26D6
:101D7C00EC85FD85EE83FF83F0FE06C0EE81FF81CE
:101D8C000E94B425EE83FF83EE81FF810E94D02652
:101D9C00A496FF9008950E948E262C97A88DB98D3D
:101DAC008A8D9B8DEC8DFD8D6E8D7F8D0E94CA244E
:101DBC00A0E0B0E48CE996E40E9421257F936F9318
:101DCC00FF93EF93A88DB98D8A8D9B8D37C00E94A0
:101DDC008E262C97A88DB98D8A8D9B8DEC89FD89CB
:101DEC006E897F890E94CA24DF01CB01E0E0F0E01C
:101DFC0060EA70E40E946F25A88DB98D8A8D9B8D49
:101E0C000E94D124EC83FD836E837F83AC81BD81E2
:101E1C008E819F81EC8DFD8D6E8D7F8D0E94CA24ED
:101E2C00A0E0B0E48CE996E40E9421257F936F93A7
:101E3C00FF93EF93AC81BD818E819F81EC89FD89ED
:101E4C006E897F890E94CA24AF91BF918F919F9117
:101E5C000E946F25E887F9876A877B87AC85BD85EB
:101E6C008E859F85E889F9896A897B890E94CA24B5
:101E7C00EC83FD836E837F83A885B9858A859B85DA
:101E8C000E942125DF01CB01E0E0F0E46CE976E46F
:101E9C000E946F25AC85BD858E859F850E94D124BF
:101EAC000E948426E881F9810E946024A0960895FE
:101EBC00BA93AA930E94CB2621E030E000E010E018
:101ECC00EC81FD810E171F074CF4F901AAE0B0E07C
:101EDC000E94FC259F010F5F1F4FF2CFAA85BB8587
:101EEC000E947726E20FF31FED93FC93AA85BB8526
:101EFC000E947726DF01E885F985AE17BF0724F429
:101F0C00AA85BB85ED93FC93AA85BB850E94772699
:101F1C00DF01EE81FF81AE17BF0724F0AA85BB85D8
:101F2C00ED93FC933AC0BA93AA930E94CB2621E07E
:101F3C0030E000E010E0EC81FD810E171F074CF43F
:101F4C00F901AAE0B0E00E94FC259F010F5F1F4F32
:101F5C00F2CFAA85BB850E947726E21BF30BED938B
:101F6C00FC93AA85BB850E947726DF01E885F9855D
:101F7C00AE17BF0724F4AA85BB85ED93FC93AA8505
:101F8C00BB850E947726DF01EE81FF81AE17BF076C
:101F9C0024F0AA85BB85ED93FC930E94D2262C9647
:101FAC000895E89434F8E0E0E093BF02E093C002B7
:101FBC00E0E0F0E0E093BD02F093BE02E093BB02E0
:101FCC00F093BC0224F8E093B102E093B20223F840
:101FDC000895BA93AA93EC81FD81309709F0E9C07A
:101FEC00A985AA233AF4A885B985E8E1FCEFEA179C
:101FFC00FB070CF015C0E885F9850E94B425E8872D
:10200C00F987A885B985E8EEF3E00E944826E887B1
:10201C00F987EEE1F0E0E0936001F09361012EC0EE
:10202C00A885B985E8E1FCEFEA17FB07ACF0E88579
:10203C00F9850E94B425E887F987A885B985E8EE6B
:10204C00F3E00E944826E887F987E3E2F0E0E093AA
:10205C006001F093610112C0A885B985E8EEF3E048
:10206C000E941926E0936001F0936101A885B9855F
:10207C00E8EEF3E00E944826E887F987A885B98541
:10208C00E4E6F0E00E941926E0936201F09363010C
:10209C00A885B985E4E6F0E00E944826E887F98730
:1020AC00A885B985EAE0F0E00E941926E093640166
:1020BC00F0936501A885B985EAE0F0E00E94482616
:1020CC00E887F987E0936601F0936701AF81AA2353
:1020DC003AF4AE81BF81E8E1FCEFEA17FB070CF0A4
:1020EC0015C0EE81FF810E94B425EE83FF83AE8183
:1020FC00BF81E8EEF3E00E944826EE83FF83E8E61A
:10210C00F1E0AEE1B0E0A083B1832EC0AE81BF811F
:10211C00E8E1FCEFEA17FB07ACF0EE81FF810E94CF
:10212C00B425EE83FF83AE81BF81E8EEF3E00E941D
:10213C004826EE83FF83E3E2F0E0E0936001F09346
:10214C00610112C0AE81BF81E8EEF3E00E94192656
:10215C00E0936801F0936901AE81BF81E8EEF3E092
:10216C000E944826EE83FF83AE81BF81E4E6F0E057
:10217C000E941926E0936A01F0936B01AE81BF8136
:10218C00E4E6F0E00E944826EE83FF83AE81BF8137
:10219C00EAE0F0E00E941926E0936C01F0936D01E7
:1021AC00AE81BF81EAE0F0E00E944826EE83FF8317
:1021BC0006C1AC81BD81119709F08AC0E885F9850B
:1021CC000E94C025AA81BB81EE0FFF1FEA0FFB1FE7
:1021DC00EA83FB83AA81BB810E947726E09360018E
:1021EC00F0936101EA81FB813296EA83FB83AA8139
:1021FC00BB810E947726E0936201F0936301EA8130
:10220C00FB813296EA83FB83AA81BB810E947726ED
:10221C00E0936401F0936501EA81FB813296EA83D5
:10222C00FB83AA81BB810E947726E0936601F09321
:10223C006701AF81AA23AAF4EE81FF810E94B42525
:10224C00EE83FF83AE81BF81E8EEF3E00E94482667
:10225C00EE83FF83E8E6F1E0AEE1B0E0A083B1836A
:10226C0012C0AE81BF81E8EEF3E00E941926E09324
:10227C006801F0936901AE81BF81E8EEF3E00E9442
:10228C004826EE83FF83AE81BF81E4E6F0E00E9436
:10229C001926E0936A01F0936B01AE81BF81E4E6ED
:1022AC00F0E00E944826EE83FF83AE81BF81EAE016
:1022BC00F0E00E941926E0936C01F0936D01AE8161
:1022CC00BF81EAE0F0E00E944826EE83FF8377C0EE
:1022DC00AC81BD81129709F076C0E885F9850E9422
:1022EC00C025AA81BB81EE0FFF1FEA0FFB1FEA83FB
:1022FC00FB83AA81BB810E947726E0936001F09357
:10230C006101EA81FB813296EA83FB83AA81BB815E
:10231C000E947726E0936201F0936301EA81FB81CE
:10232C003296EA83FB83AA81BB810E947726E093D5
:10233C006401F0936501EA81FB813296EA83FB83A9
:10234C00AA81BB810E947726E0936601F093670116
:10235C00EE81FF810E94C025A881B981EE0FFF1F7D
:10236C00EA0FFB1FE883F983A881B9810E947726C5
:10237C00E0936801F0936901E881F9813296E88372
:10238C00F983A881B9810E947726E0936A01F093C2
:10239C006B01E881F9813296E883F983A881B981D0
:1023AC000E947726E0936C01F0936D01E881F9812E
:1023BC003296E883F983A881B9810E947726E0934D
:1023CC006E01F0936F012A960895B2992FC0A9EB74
:1023DC00B2E0ED91FD913196FE93EE93A091B9028E
:1023EC00B091BA0214970CF1E0E0E093B902E093DB
:1023FC00BA0234FC18C0689434F8E1E0F0E0E093E1
:10240C00BF02F093C002E0E0F0E0E093BD02F09375
:10241C00BE02E093BB02F093BC02E093B102E093E6
:10242C00B20223F802C034FCBCDD05C0E0E0E0934E
:10243C00B902E093BA02089534FE02C035FE01C021
:10244C0015C2E0E0E093B102E093B202A091BF02AA
:10245C00B091C002119761F4E2E0F0E0E093BF02AA
:10246C00F093C002E0E0E093BD02E093BE02FDC138
:10247C00A091BF02B091C002129709F0F5C1ADEB6B
:10248C00B2E0ED91FD913196FE93EE93E091BB029B
:10249C00F091BC02309759F5E091BD02F091BE026B
:1024AC003197BF01A0E0B0E0EE0FFF1FEA0FFB1F5A
:1024BC000F01FB01A8E8B1E0EE0FFF1FAE0FBF1F2D
:1024CC000E947726D0010E94B026A091BD02B09147
:1024DC00BE0211975CF0E0E0E093BD02E093BE0217
:1024EC00E1E0F0E0E093BF02F093C002BCC1E13048
:1024FC00A0E0FA0759F5E091BD02F091BE023197C8
:10250C00BF01A0E1B0E0EE0FFF1FEA0FFB1F0F01B0
:10251C00FB01A8E9B1E0EE0FFF1FAE0FBF1F0E9439
:10252C007726D0010E94B026A091BD02B091BE02C8
:10253C0017975CF0E0E0E093BD02E093BE02E1E0AF
:10254C00F0E0E093BF02F093C0028DC1E230A0E056
:10255C00FA0759F5E091BD02F091BE023197BF0127
:10256C00A0E2B0E0EE0FFF1FEA0FFB1F0F01FB0113
:10257C00A8EAB1E0EE0FFF1FAE0FBF1F0E94772637
:10258C00D0010E94B026A091BD02B091BE02179757
:10259C005CF0E0E0E093BD02E093BE02E1E0F0E02D
:1025AC00E093BF02F093C0025EC1E330A0E0FA07F3
:1025BC0059F5E091BD02F091BE023197BF01A0E345
:1025CC00B0E0EE0FFF1FEA0FFB1F0F01FB01A8EBA2
:1025DC00B1E0EE0FFF1FAE0FBF1F0E947726D00198
:1025EC000E94B026A091BD02B091BE0217975CF07C
:1025FC00E0E0E093BD02E093BE02E1E0F0E0E093A6
:10260C00BF02F093C0022FC1E430A0E0FA0759F5E5
:10261C00E091BD02F091BE023197BF01A0E4B0E0A1
:10262C00EE0FFF1FEA0FFB1F0F01FB01A8ECB1E03F
:10263C00EE0FFF1FAE0FBF1F0E947726D0010E9426
:10264C00B026A091BD02B091BE0217975CF0E0E0FD
:10265C00E093BD02E093BE02E1E0F0E0E093BF0244
:10266C00F093C00200C1E530A0E0FA0759F5E09103
:10267C00BD02F091BE023197BF01A0E5B0E0EE0FB4
:10268C00FF1FEA0FFB1F0F01FB01A8EDB1E0EE0FDE
:10269C00FF1FAE0FBF1F0E947726D0010E94B026ED
:1026AC00A091BD02B091BE0217975CF0E0E0E09300
:1026BC00BD02E093BE02E1E0F0E0E093BF02F093D4
:1026CC00C002D1C0E630A0E0FA0759F5E091BD0296
:1026DC00F091BE023197BF01A0E6B0E0EE0FFF1FF4
:1026EC00EA0FFB1F0F01FB01A8EEB1E0EE0FFF1F7D
:1026FC00AE0FBF1F0E947726D0010E94B026A0917A
:10270C00BD02B091BE0217975CF0E0E0E093BD0211
:10271C00E093BE02E1E0F0E0E093BF02F093C00270
:10272C00A2C0E730A0E0FA0709F06FC0E091BD024B
:10273C00F091BE023197BF01A0E7B0E0EE0FFF1F92
:10274C00EA0FFB1F0F01FB01A8EFB1E0EE0FFF1F1B
:10275C00AE0FBF1F0E947726D0010E94B026E091D9
:10276C00BD02F091BE023197A8EFB1E0EE0FFF1F52
:10277C00AE0FBF1F0E947726309771F4E091BD0217
:10278C00F091BE023197A8E0B2E0EE0FFF1FAE0F42
:10279C00BF1FE2E0F0E025C0E130A0E0FA07A1F0B5
:1027AC00E230A0E0FA0781F0E330A0E0FA0761F034
:1027BC00E430A0E0FA0741F0E530A0E0FA0721F0A0
:1027CC00E630A0E0FA0779F4E091BD02F091BE0288
:1027DC003197A8E0B2E0EE0FFF1FAE0FBF1FE3E092
:1027EC00F0E0ED93FC93A091BD02B091BE0217975F
:1027FC005CF0E0E0E093BD02E093BE02E1E0F0E0CB
:10280C00E093BF02F093C0022EC0E830A0E0FA07BC
:10281C0051F5E091BD02F091BE023197BF01A0E8E5
:10282C00B0E0EE0FFF1FEA0FFB1F0F01FB01A8E04A
:10283C00B2E0EE0FFF1FAE0FBF1F0E947726D00134
:10284C000E94B026A091BD02B091BE0217975CF019
:10285C00E0E0E093BD02E093BE02E1E0F0E0E09343
:10286C00BF02F093C00201C09CDB56C035FE54C0C1
:10287C00A3EBB2E0ED91FD913196FE93EE93A09116
:10288C00B302B091B40218972CF0E0E0E093B302DD
:10289C00E093B402E091B302F091B4023097C9F125
:1028AC00E130A0E0FA0711F4939A34C0E230A0E0D2
:1028BC00FA0719F49398949A2EC0E330A0E0FA0723
:1028CC0019F4939A949A27C0E430A0E0FA0721F403
:1028DC0093989498959A20C0E530A0E0FA0721F4DB
:1028EC00939A9498959A18C0E630A0E0FA0721F4D0
:1028FC009398949A959A10C0E730A0E0FA0721F4C7
:10290C00939A949A959A08C0E0E0E093B302E0930E
:10291C00B402939894989598089534FE02C035FEAD
:10292C0001C083C1A091BF02B091C002119721F5E3
:10293C00E0E0E093BD02E093BE02ABEBB2E0ED91C0
:10294C00FD913196FE93EE93A091BB02B091BC0227
:10295C00139731F4E5E0F0E0E093BB02F093BC0296
:10296C00A091BB02B091BC0217972CF0E0E0E09371
:10297C00BB02E093BC0258C1A091BF02B091C0024F
:10298C00129709F051C1E091BB02F091BC02309753
:10299C0009F042C0E091BD02F091BE02309779F48B
:1029AC00E8E8F1E0FA93EA93E1E0F0E0FA93EA93D5
:1029BC00E3E6F0E0FA93EA93A0E0B0E079DAA091D4
:1029CC00BD02B091BE02119789F4EAE8F1E0FA93E6
:1029DC00EA93E1E0F0E0FA93EA93E2EFF0E0FA93A5
:1029EC00EA93A091B102B091B20262DAA091BD0259
:1029FC00B091BE02129779F4ECE8F1E0FA93EA9305
:102A0C00E0E0F0E0FA93EA93E3E0F0E0FA93EA9383
:102A1C00A0E0B0E04DDA08C1E130A0E0FA07D1F453
:102A2C00E091BD02F091BE02A8E9B1E0EE0FFF1FEC
:102A3C00EA0FFB1FFA93EA93E9E1FCEFFA93EA93AE
:102A4C00EFECF7E0FA93EA93A091B102B091B202E5
:102A5C002FDAEAC0E230A0E0FA07C1F4E091BD023F
:102A6C00F091BE02A8EAB1E0EE0FFF1FEA0FFB1FC8
:102A7C00FA93EA93E0E0F0E0FA93EA93E1E0F0E015
:102A8C00FA93EA93A0E0B0E013DACEC0E330A0E012
:102A9C00FA07D1F4E091BD02F091BE02A8EBB1E0CF
:102AAC00EE0FFF1FEA0FFB1FFA93EA93E8E3FFEF29
:102ABC00FA93EA93ECE2F1E0FA93EA93A091B10273
:102ACC00B091B202F5D9B0C0E430A0E0FA07D1F46D
:102ADC00E091BD02F091BE02A8ECB1E0EE0FFF1F39
:102AEC00EA0FFB1FFA93EA93E8E3FFEFFA93EA93FA
:102AFC00ECE2F1E0FA93EA93A091B102B091B20248
:102B0C00D7D992C0E530A0E0FA07D1F4E091BD022C
:102B1C00F091BE02A8EDB1E0EE0FFF1FEA0FFB1F14
:102B2C00FA93EA93E8E3FFEFFA93EA93ECE2F1E02D
:102B3C00FA93EA93A091B102B091B202B9D974C0E0
:102B4C00E630A0E0FA07D1F4E091BD02F091BE02AC
:102B5C00A8EEB1E0EE0FFF1FEA0FFB1FFA93EA930A
:102B6C00E8E3FFEFFA93EA93ECE2F1E0FA93EA93ED
:102B7C00A091B102B091B2029BD956C0E730A0E04F
:102B8C00FA07C1F4E091BD02F091BE02A8EFB1E0EA
:102B9C00EE0FFF1FEA0FFB1FFA93EA93E0E0F0E061
:102BAC00FA93EA93E8E0F0E0FA93EA93A0E0B0E05D
:102BBC007FD93AC0E830A0E0FA07A9F5E091BD0250
:102BCC00F091BE02A8EFB1E0EE0FFF1FAE0FBF1FDA
:102BDC000E94772637977CF4E091BD02F091BE02FB
:102BEC00A8E0B2E0EE0FFF1FEA0FFB1FFA93EA9387
:102BFC00E3E0F0E00EC0E091BD02F091BE02A8E06F
:102C0C00B2E0EE0FFF1FEA0FFB1FFA93EA93E0E02E
:102C1C00F0E0FA93EA93E3E0F0E0FA93EA93A0E0B1
:102C2C00B0E046D901C0BDD96BC035FE2DC0E091D6
:102C3C00B302F091B402A8E1B2E0EE0FFF1FEA0F6D
:102C4C00FB1FFF93EF930E941B0CAF91BF91ED9371
:102C5C00FC93E091B302F091B402A0E9B0E0EE0F66
:102C6C00FF1FEA0FFB1F0F01E091B302F091B402BA
:102C7C00A8E1B2E0EE0FFF1FAE0FBF1F0E94772638
:102C8C00D0010E94B0263CC034FC04C035FC02C00C
:102C9C0037FC01C035C0F50131965F01A8EAB1E0FF
:102CAC00EE0FFF1FAE0FBF1F0E947726309729F043
:102CBC00E8E0F0E0EA15FB050CF401C021C0E8E007
:102CCC00F0E0AE16BF0614F0AA24BB24F501A8E769
:102CDC00B1E0EE0FFF1FAE0FBF1F0E947726FA93D5
:102CEC00EA93F5013196FA93EA93E0E0F0E0FA9377
:102CFC00EA93E4E7F1E0FA93EA93A6E7B1E069D945
:102D0C00089534FE02C035FE01C082C1A091BF02FD
:102D1C00B091C0021197F1F4ABEBB2E0ED91FD91E3
:102D2C003197FE93EE93A091BB02B091BC02149725
:102D3C0031F4E2E0F0E0E093BB02F093BC02A0912E
:102D4C00BC02AA2332F4E6E0F0E0E093BB02F0937D
:102D5C00BC025DC1A091BF02B091C002129709F0F4
:102D6C0056C1E091BB02F091BC02309709F042C011
:102D7C00E091BD02F091BE02309779F4E8E8F1E001
:102D8C00FA93EA93E1E0F0E0FA93EA93E3E6F0E0F9
:102D9C00FA93EA93A0E0B0E0C6D8A091BD02B0913E
:102DAC00BE02119789F4EAE8F1E0FA93EA93E1E0C4
:102DBC00F0E0FA93EA93E2EFF0E0FA93EA93A09151
:102DCC00B102B091B202AFD8A091BD02B091BE02D7
:102DDC00129779F4ECE8F1E0FA93EA93E0E0F0E092
:102DEC00FA93EA93E3E0F0E0FA93EA93A0E0B0E020
:102DFC009AD80DC1E130A0E0FA07D1F4E091BD0200
:102E0C00F091BE02A8E9B1E0EE0FFF1FEA0FFB1F25
:102E1C00FA93EA93E9E1FCEFFA93EA93E7EEF3E035
:102E2C00FA93EA93A091B102B091B2027CD8EFC0B0
:102E3C00E230A0E0FA07C1F4E091BD02F091BE02CD
:102E4C00A8EAB1E0EE0FFF1FEA0FFB1FFA93EA931B
:102E5C00E0E0F0E0FA93EA93E1E0F0E0FA93EA9331
:102E6C00A0E0B0E060D8D3C0E330A0E0FA07D1F422
:102E7C00E091BD02F091BE02A8EBB1E0EE0FFF1F96
:102E8C00EA0FFB1FFA93EA93E8E3FFEFFA93EA9356
:102E9C00ECE2F1E0FA93EA93A091B102B091B202A4
:102EAC0042D8B5C0E430A0E0FA07D1F4E091BD02FD
:102EBC00F091BE02A8ECB1E0EE0FFF1FEA0FFB1F72
:102ECC00FA93EA93E8E3FFEFFA93EA93ECE2F1E08A
:102EDC00FA93EA93A091B102B091B20224D897C0B0
:102EEC00E530A0E0FA07D9F4E091BD02F091BE0202
:102EFC00A8EDB1E0EE0FFF1FEA0FFB1FFA93EA9368
:102F0C00E8E3FFEFFA93EA93ECE2F1E0FA93EA9349
:102F1C00A091B102B091B2020E94990F78C0E63034
:102F2C00A0E0FA07D9F4E091BD02F091BE02A8EE40
:102F3C00B1E0EE0FFF1FEA0FFB1FFA93EA93E8E3F1
:102F4C00FFEFFA93EA93ECE2F1E0FA93EA93A091A3
:102F5C00B102B091B2020E94990F59C0E730A0E0C3
:102F6C00FA07C9F4E091BD02F091BE02A8EFB1E0FE
:102F7C00EE0FFF1FEA0FFB1FFA93EA93E0E0F0E07D
:102F8C00FA93EA93E8E0F0E0FA93EA93A0E0B0E079
:102F9C000E94990F3CC0E830A0E0FA07B1F5E0912F
:102FAC00BD02F091BE02A8EFB1E0EE0FFF1FAE0F15
:102FBC00BF1F0E94772637977CF4E091BD02F091F9
:102FCC00BE02A8E0B2E0EE0FFF1FEA0FFB1FFA9360
:102FDC00EA93E3E0F0E00EC0E091BD02F091BE0296
:102FEC00A8E0B2E0EE0FFF1FEA0FFB1FFA93EA9383
:102FFC00E0E0F0E0FA93EA93E3E0F0E0FA93EA938E
:10300C00A0E0B0E00E94990F02C00E94D70F2EC022
:10301C0035FE2CC0E091B302F091B402A8E2B2E00C
:10302C00EE0FFF1FEA0FFB1FFF93EF930E941B0C89
:10303C00AF91BF91ED93FC93E091B302F091B40288
:10304C00A0EAB0E0EE0FFF1FEA0FFB1F0F01E091AB
:10305C00B302F091B402A8E2B2E0EE0FFF1FAE0F84
:10306C00BF1F0E947726D0010E94B026089534FC21
:10307C0002C035FE01C002C0E0E83E2623FE07C0B8
:10308C00A1EBB2E0ED91FD913196FE93EE93A09100
:10309C00B102B091B20214972CF0E0E0E093B102CF
:1030AC00E093B2020895AA93BA93EA93FA93EFB716
:1030BC00EA93EBEAEDBDE0EAECBDE0E22E26689483
:1030CC0027F8E0E12E26A5EBB2E0ED91FD913196CB
:1030DC00FE93EE93E0918801F0918901EE0FFF1FB2
:1030EC00A091B502B091B602AE17BF073CF026F81E
:1030FC00E0E0E093B502E093B60236F8E991EFBF59
:10310C00F991E991B991A9911895EFEFF0E02F01A0
:10311C003F01E091D801F091D901A0917801B091D3
:10312C007901EA17FB071CF0EBEF6E227724E09194
:10313C00E801F091E901A0917801B0917901AE1705
:10314C00BF071CF0EBEF4E225524E091AA01F09141
:10315C00AB013097E1F4A0917A01B0917B01E09141
:10316C00DA01F091DB01EA17FB071CF0EDEF6E22A0
:10317C007724A0917A01B0917B01E091EA01F09162
:10318C00EB01AE17BF071CF0EDEF4E225524E0917A
:10319C00AC01F091AD013097E1F4A0917C01B091BC
:1031AC007D01E091DC01F091DD01EA17FB071CF0D9
:1031BC00EEEF6E227724A0917C01B0917D01E0911D
:1031CC00EC01F091ED01AE17BF071CF0EEEF4E22B3
:1031DC005524E091AE01F091AF013097E1F4A0914C
:1031EC007E01B0917F01E091DE01F091DF01EA17E1
:1031FC00FB071CF0E7EF6E227724A0917E01B091C3
:10320C007F01E091EE01F091EF01AE17BF071CF0CA
:10321C00E7EF4E225524E091B001F091B1013097C7
:10322C00E1F4A0918001B0918101E091E001F09175
:10323C00E101EA17FB071CF0EFEE6E227724A09158
:10324C008001B0918101E091F001F091F101AE1794
:10325C00BF071CF0EFEE4E225524E091B201F09125
:10326C00B3013097E1F4A0918201B0918301E09118
:10327C00E201F091E301EA17FB071CF0EFED6E227F
:10328C007724A0918201B0918301E091F201F09139
:10329C00F301AE17BF071CF0EFED4E225524E09161
:1032AC00B401F091B5013097E1F4A0918401B09193
:1032BC008501E091E401F091E501EA17FB071CF0B0
:1032CC00EFEB6E227724A0918401B0918501E091FF
:1032DC00F401F091F501AE17BF071CF0EFEB4E2295
:1032EC0055240895EFEFF0E0E415F50511F4979AE5
:1032FC0001C09798EFEFF0E0E615F70511F4969AF8
:10330C0001C0969808950E94C92635FC77C40E9486
:10331C001B0C8F01A091B302B091B402179711F45A
:10332C0021FC01C028C0E0912602F09127020E1763
:10333C001F077CF0A0912602B0912702F801EA1B2E
:10334C00FB0BDF01E6E1F0E00E9419267E966F018F
:10335C0011C0A0912602B0912702F801EA1BFB0BC9
:10336C00DF01E6E1F0E00E941926AEE1B0E0AE1B11
:10337C00BF0B6D01CCC3E091B302F091B402A8EF86
:10338C00B1E0EE0FFF1FAE0FBF1F0E9477263097E4
:10339C0009F051C0E091B302F091B402A8E7B1E09A
:1033AC00EE0FFF1FEA0FFB1FFF93EF93F8010E9434
:1033BC00CA250E9497240E948926E091B302F091BD
:1033CC00B402A8E1B2E0EE0FFF1FAE0FBF1F0E94C8
:1033DC0077260E94CA250E9497240E948926E09194
:1033EC00B302F091B402A8E2B2E0EE0FFF1FAE0FF1
:1033FC00BF1F0E9477260E94CA250E949724DF01D6
:10340C00CB010E94390C0F01E091B302F091B40290
:10341C00A8E9B1E0EE0FFF1FAE0FBF1F0E94772689
:10342C00E00DF11DAF91BF91ED93FC9321E338EFCB
:10343C0040E757E126C3E130A0E0FA0709F056C097
:10344C00E091B302F091B402A8E7B1E0EE0FFF1FD8
:10345C00EA0FFB1FFF93EF93F8010E94CA250E940D
:10346C0097240E948926E091B302F091B402A8E15E
:10347C00B2E0EE0FFF1FAE0FBF1F0E9477260E9417
:10348C00CA250E9497240E948926E091B302F091EC
:10349C00B402A8E2B2E0EE0FFF1FAE0FBF1F0E94F6
:1034AC0077260E94CA250E949724DF01CB010E9437
:1034BC00390CDF01EAE0F0E00E9419260F01E091DF
:1034CC00B302F091B402A8E9B1E0EE0FFF1FAE0F0A
:1034DC00BF1F0E947726E00DF11DAF91BF91ED93B8
:1034EC00FC9329E33FEF48E552E0CBC2E230A0E089
:1034FC00FA0709F05DC0E091B302F091B402A8E7BD
:10350C00B1E0EE0FFF1FEA0FFB1FFF93EF93F801E3
:10351C000E94CA250E9497240E948926E091B3023A
:10352C00F091B402A8E1B2E0EE0FFF1FAE0FBF1F87
:10353C000E9477260E94CA250E9497240E94892601
:10354C00E091B302F091B402A8E2B2E0EE0FFF1FDB
:10355C00AE0FBF1F0E9477260E94CA250E94972497
:10356C000E948926EFE0F0E0FA93EA93E7E4F6E0B4
:10357C00FA93EA93A8E8B3E180E090E00E94D50DBD
:10358C000F01E091B302F091B402A8E9B1E0EE0FA3
:10359C00FF1FAE0FBF1F0E947726E00DF11DAF91EC
:1035AC00BF91ED93FC9320E030E04CEB52E069C20C
:1035BC00E330A0E0FA0709F05DC0E091B302F091AE
:1035CC00B402A8E7B1E0EE0FFF1FEA0FFB1FFF9359
:1035DC00EF93F8010E94CA250E9497240E94892625
:1035EC00E091B302F091B402A8E1B2E0EE0FFF1F3C
:1035FC00AE0FBF1F0E9477260E94CA250E949724F7
:10360C000E948926E091B302F091B402A8E2B2E0E4
:10361C00EE0FFF1FAE0FBF1F0E9477260E94CA2518
:10362C000E9497240E948926ECE1F0E0FA93EA9339
:10363C00E5E6F6E0FA93EA93A8E8B3E180E090E0DF
:10364C000E94D50D0F01E091B302F091B402A8E9EC
:10365C00B1E0EE0FFF1FAE0FBF1F0E947726E00DEB
:10366C00F11DAF91BF91ED93FC9320E030E044E16C
:10367C0055E007C2E430A0E0FA0709F05DC0E09124
:10368C00B302F091B402A8E7B1E0EE0FFF1FEA0F0E
:10369C00FB1FFF93EF93F8010E94CA250E94972409
:1036AC000E948926E091B302F091B402A8E1B2E045
:1036BC00EE0FFF1FAE0FBF1F0E9477260E94CA2578
:1036CC000E9497240E948926E091B302F091B402E3
:1036DC00A8E2B2E0EE0FFF1FAE0FBF1F0E947726CD
:1036EC000E94CA250E9497240E948926E4E2F0E0F9
:1036FC00FA93EA93EDE9F6E0FA93EA93A0E5B3ECDA
:10370C0080E090E00E94D50D0F01E091B302F091A2
:10371C00B402A8E9B1E0EE0FFF1FAE0FBF1F0E946D
:10372C007726E00DF11DAF91BF91ED93FC9320E056
:10373C0030E044EA56E0A5C1E530A0E0FA0709F014
:10374C005DC0E091B302F091B402A8E7B1E0EE0FD6
:10375C00FF1FEA0FFB1FFF93EF93F8010E94CA258E
:10376C000E9497240E948926E091B302F091B40242
:10377C00A8E1B2E0EE0FFF1FAE0FBF1F0E9477262D
:10378C000E94CA250E9497240E948926E091B302C8
:10379C00F091B402A8E2B2E0EE0FFF1FAE0FBF1F14
:1037AC000E9477260E94CA250E9497240E9489268F
:1037BC00E4E2F0E0FA93EA93E5EEF6E0FA93EA93AA
:1037CC00A0E5B3EC80E090E00E94D50D0F01E091F4
:1037DC00B302F091B402A8E9B1E0EE0FFF1FAE0FF7
:1037EC00BF1F0E947726E00DF11DAF91BF91ED93A5
:1037FC00FC9320E030E044EA56E043C1E630A0E020
:10380C00FA0709F051C0E091B302F091B402A8E7B5
:10381C00B1E0EE0FFF1FEA0FFB1FFF93EF93F801D0
:10382C000E94CA250E9497240E948926E091B30227
:10383C00F091B402A8E1B2E0EE0FFF1FAE0FBF1F74
:10384C000E9477260E94CA250E9497240E948926EE
:10385C00E091B302F091B402A8E2B2E0EE0FFF1FC8
:10386C00AE0FBF1F0E9477260E94CA250E94972484
:10387C00DF01CB010E94EC0C0F01E091B302F0913F
:10388C00B402A8E9B1E0EE0FFF1FAE0FBF1F0E94FC
:10389C007726E00DF11DAF91BF91ED93FC9328E3DA
:1038AC003FEF4EE551E0EDC0E730A0E0FA0709F03C
:1038BC006FC0E091B302F091B402A8E7B1E0EE0F53
:1038CC00FF1FEA0FFB1FFF93EF93F8010E94CA251D
:1038DC000E9497240E948926E091B302F091B402D1
:1038EC00A8E1B2E0EE0FFF1FAE0FBF1F0E947726BC
:1038FC000E94CA250E9497240E948926E091B30257
:10390C00F091B402A8E2B2E0EE0FFF1FAE0FBF1FA2
:10391C000E9477260E94CA250E9497240E9489261D
:10392C00E091B302F091B402A8ECB1E0EE0FFF1FEE
:10393C00AE0FBF1F0E9477260E94CA250E949724B3
:10394C000E948926E091B302F091B402A8EBB1E099
:10395C00EE0FFF1FAE0FBF1F0E9477260E94CA25D5
:10396C000E949724DF01CB010E94D10E0F01E09140
:10397C00B302F091B402A8E9B1E0EE0FFF1FAE0F55
:10398C00BF1F0E947726E00DF11DAF91BF9173C050
:10399C00E830A0E0FA0709F074C0E091B302F091AE
:1039AC00B402A8E7B1E0EE0FFF1FEA0FFB1FFF9375
:1039BC00EF93F8010E94CA250E9497240E94892641
:1039CC00E091B302F091B402A8E1B2E0EE0FFF1F58
:1039DC00AE0FBF1F0E9477260E94CA250E94972413
:1039EC000E948926E091B302F091B402A8E2B2E001
:1039FC00EE0FFF1FAE0FBF1F0E9477260E94CA2535
:103A0C000E9497240E948926E091B302F091B4029F
:103A1C00A8ECB1E0EE0FFF1FAE0FBF1F0E94772680
:103A2C000E94CA250E9497240E948926E091B30225
:103A3C00F091B402A8EBB1E0EE0FFF1FAE0FBF1F69
:103A4C000E9477260E94CA250E949724DF01CB0191
:103A5C000E94ED0E0F01E091B302F091B402A8E9BF
:103A6C00B1E0EE0FFF1FAE0FBF1F0E947726E00DD7
:103A7C00F11DAF91BF91ED93FC9321E338EF4FE033
:103A8C0057E2E091B302F091B402A8E7B1E0EE0F77
:103A9C00FF1FAE0FBF1F0E947726E217F3076CF4CF
:103AAC00E091B302F091B402A9E2B5E0EE0FFF1F72
:103ABC00AE0FBF1FE1E0F0E028C0E091B302F0913F
:103ACC00B402A8E7B1E0EE0FFF1FAE0FBF1F0E94BC
:103ADC0077264E175F076CF4E091B302F091B402B5
:103AEC00A9E2B5E0EE0FFF1FAE0FBF1FE2E0F0E062
:103AFC000CC0E091B302F091B402A9E2B5E0EE0F74
:103B0C00FF1FAE0FBF1FE0E0F0E0ED93FC93A3EBC3
:103B1C00B2E0ED91FD913196FE93EE9321FE06C03D
:103B2C00A091B302B091B4021797D9F0E091B3020F
:103B3C00F091B402A8EAB1E0EE0FFF1FAE0FBF1F69
:103B4C000E947726309769F0A3EBB2E0ED91FD91DE
:103B5C003196FE93EE93A091B302B091B4021897F4
:103B6C002CF3A091B302B091B40218972CF0E0E0C2
:103B7C00E093B302E093B402E091B302F091B4028B
:103B8C003097C9F1E130A0E0FA0711F4939A34C0F0
:103B9C00E230A0E0FA0719F49398949A2EC0E3301F
:103BAC00A0E0FA0719F4939A949A27C0E430A0E0A5
:103BBC00FA0721F493989498959A20C0E530A0E0E8
:103BCC00FA0721F4939A9498959A18C0E630A0E0DD
:103BDC00FA0721F49398949A959A10C0E730A0E0D4
:103BEC00FA0721F4939A949A959A08C0E0E0E0932E
:103BFC00B302E093B4029398949895980E94D026BF
:103C0C00269608951A930A9334FC02C035FE01C01F
:103C1C0079C0A0E2B0E0E0E0F0E00E94B026E093D2
:103C2C00A801F093A90126FE6CC037FC03C0F50176
:103C3C0031965F01F501A8EAB1E0EE0FFF1FAE0F60
:103C4C00BF1F0E947726309729F0E7E0F0E0EA15D5
:103C5C00FB050CF401C055C0E89426F8E7E0F0E051
:103C6C00AE16BF0614F0AA24BB24F501A9E2B5E0F8
:103C7C00EE0FFF1FAE0FBF1F0E947726309731F15A
:103C8C00E130A0E0FA0779F4E0E0F0E0FA93EA938F
:103C9C00F5013196FA93EA93E1E0F0E0FA93EA93B6
:103CAC00E1E1F6E028C0E230A0E0FA0779F4E0E0C8
:103CBC00F0E0FA93EA93F5013196FA93EA93E1E096
:103CCC00F0E0FA93EA93E9E1F6E015C0F501A8E714
:103CDC00B1E0EE0FFF1FAE0FBF1F0E947726FA93C5
:103CEC00EA93F5013196FA93EA93E0E0F0E0FA9367
:103CFC00EA93E4E7F1E0FA93EA93A6E7B1E00E94D5
:103D0C00EF0F96C134FE02C035FE01C078C1A09100
:103D1C00BF02B091C0021197A9F4E0E0F0E0FA9371
:103D2C00EA93E091BB02F091BC02FA93EA93E2E0D1
:103D3C00F0E0FA93EA93E1ECF2E0FA93EA93A9EC5F
:103D4C00B2E05AC1A091BF02B091C002129709F023
:103D5C0055C1E091BB02F091BC02309709F055C0FF
:103D6C00E091BD02F091BE023097B1F4E0E0F0E0DA
:103D7C00FA93EA93E0918801F0918901FA93EA931E
:103D8C00E1E0F0E0FA93EA93E1E1F3E0FA93EA93ED
:103D9C00A4E7B1E00E94EF0FA091BD02B091BE026A
:103DAC001197B1F4E1E0F0E0FA93EA93E0918A0123
:103DBC00F0918B01FA93EA93E1E0F0E0FA93EA9345
:103DCC00E1E1F3E0FA93EA93A4E7B1E00E94EF0F8C
:103DDC00A091BD02B091BE021297B1F4E2E0F0E006
:103DEC00FA93EA93E0918C01F0918D01FA93EA93A6
:103DFC00E2E0F0E0FA93EA93E1E1F3E0FA93EA937C
:103E0C00A1E9B5E00E94EF0FF9C0E130A0E0FA079C
:103E1C00D9F4E091BD02F091BE02FA93EA93A8E9BD
:103E2C00B1E0EE0FFF1FAE0FBF1F0E947726FA9373
:103E3C00EA93E1E0F0E0FA93EA93E9E2F3E0FA9333
:103E4C00EA93A4E7B1E0D8C0E230A0E0FA07D9F4D5
:103E5C00E091BD02F091BE02FA93EA93A8EAB1E0B8
:103E6C00EE0FFF1FAE0FBF1F0E947726FA93EA9347
:103E7C00E2E0F0E0FA93EA93E9E6F3E0FA93EA93EE
:103E8C00A9E3B5E0B9C0E330A0E0FA07D9F4E091BA
:103E9C00BD02F091BE02FA93EA93A8EBB1E0EE0FEB
:103EAC00FF1FAE0FBF1F0E947726FA93EA93E1E043
:103EBC00F0E0FA93EA93E9EAF3E0FA93EA93A4E7E1
:103ECC00B1E09AC0E430A0E0FA07D9F4E091BD0269
:103EDC00F091BE02FA93EA93A8ECB1E0EE0FFF1F4B
:103EEC00AE0FBF1F0E947726FA93EA93E1E0F0E051
:103EFC00FA93EA93E9EEF3E0FA93EA93A4E7B1E0DC
:103F0C007BC0E530A0E0FA07D9F4E091BD02F09156
:103F1C00BE02FA93EA93A8EDB1E0EE0FFF1FAE0FCD
:103F2C00BF1F0E947726FA93EA93E1E0F0E0FA9340
:103F3C00EA93E9E2F4E0FA93EA93A4E7B1E05CC017
:103F4C00E630A0E0FA07D9F4E091BD02F091BE0290
:103F5C00FA93EA93A8EEB1E0EE0FFF1FAE0FBF1F6E
:103F6C000E947726FA93EA93E1E0F0E0FA93EA9361
:103F7C00E9E6F4E0FA93EA93A4E7B1E03DC0E73058
:103F8C00A0E0FA07D9F4E091BD02F091BE02FA93D9
:103F9C00EA93A8EFB1E0EE0FFF1FAE0FBF1F0E9418
:103FAC007726FA93EA93E2E0F0E0FA93EA93E9EAEF
:103FBC00F4E0FA93EA93A9E4B5E01EC0E830A0E07F
:103FCC00FA07E1F4E091BD02F091BE02FA93EA9394
:103FDC00A8E0B2E0EE0FFF1FAE0FBF1F0E947726C6
:103FEC00FA93EA93E2E0F0E0FA93EA93E9EEF4E074
:103FFC00FA93EA93A1EFB5E00E94EF0F19C035FEDA
:10400C0017C00E941B0C8F01E091B302F091B40217
:10401C00FA93EA931A930A93E1E0F0E0FA93EA93A5
:10402C00E1EBF5E0FA93EA93A4E7B1E00E94EF0F1D
:10403C0004C3BA93AA931A930A930E940A04EA81BE
:10404C00FB81A0E6B1E0EE0FFF1FAE0FBF1F0D917D
:10405C001C91ACE8B2E0A00FB11F0C911127A091FC
:10406C00B102B091B202E7E0F0E0EA1BFB0BAA81CF
:10407C00BB81EA17FB0751F423FE02C024FC01C0EC
:10408C0003C0EFEFEBBB01C00BBB01C00BBBEA8164
:10409C00FB81309791F434FC02C035FE01C00CC09A
:1040AC00F501A8E0B2E0EE0FFF1FAE0FBF1F0E949C
:1040BC007726309709F4DF98F9C0E130A0E0FA07D1
:1040CC00A1F434FC02C035FE01C00EC0F501A8E01D
:1040DC00B2E0EE0FFF1FAE0FBF1F0E947726E1303C
:1040EC00A0E0FA0709F4DF98E1C0E230A0E0FA079B
:1040FC00A1F434FC02C035FE01C00EC0F501A8E0ED
:10410C00B2E0EE0FFF1FAE0FBF1F0E947726E2300A
:10411C00A0E0FA0709F4DF98C9C0E430A0E0FA0780
:10412C00D9F534FE08C035FC06C0A091BF02B09191
:10413C00C002129709F02FC0E091BD02F091BE02AF
:10414C00A8E0B2E0EE0FFF1FAE0FBF1F0E94772654
:10415C003097F9F4A091BB02B091BC021197C1F059
:10416C00A091BB02B091BC02139791F0A091BB023D
:10417C00B091BC02149761F0A091BB02B091BC024B
:10418C00159731F0A091BB02B091BC02169709F4BF
:10419C0001C001C0DF988AC0E530A0E0FA07D9F56C
:1041AC0034FE08C035FC06C0A091BF02B091C0021D
:1041BC00129709F02FC0E091BD02F091BE02A8E069
:1041CC00B2E0EE0FFF1FAE0FBF1F0E947726319794
:1041DC00F9F4A091BB02B091BC021197C1F0A0916F
:1041EC00BB02B091BC02139791F0A091BB02B091AD
:1041FC00BC02149761F0A091BB02B091BC02159760
:10420C0031F0A091BB02B091BC02169709F401C029
:10421C0001C0DF984BC0E630A0E0FA07D9F534FEB8
:10422C0008C035FC06C0A091BF02B091C002129725
:10423C0009F02FC0E091BD02F091BE02A8E0B2E0FF
:10424C00EE0FFF1FAE0FBF1F0E9477263297F9F4B7
:10425C00A091BB02B091BC021197C1F0A091BB021E
:10426C00B091BC02139791F0A091BB02B091BC022B
:10427C00149761F0A091BB02B091BC02159731F07C
:10428C00A091BB02B091BC02169709F401C001C009
:10429C00DF980CC0E730A0E0FA0741F434FC04C00E
:1042AC0035FC02C037FC01C001C0DF98EA81FB81FC
:1042BC00309711F4A89A37C0E130A0E0FA0711F456
:1042CC00AF9A31C0E230A0E0FA0711F4AE9A2BC0DD
:1042DC00E330A0E0FA0711F4AD9A25C0E430A0E079
:1042EC00FA0711F4A99A1FC0E530A0E0FA0711F4FF
:1042FC00AA9A19C0E630A0E0FA0711F4AB9A13C0E1
:10430C00E730A0E0FA0711F4AC9A0DC0E830A0E059
:10431C00FA0719F44BBAC69A06C0E930A0E0FA07BE
:10432C0011F46BBAC79A1981088124960895B59A2D
:10433C00B49AB39AB29AA7EBB2E0ED91FD91319693
:10434C00FE93EE93A091B702B091B802A436E0E0D0
:10435C00BE078CF1E0E0E093B702E093B802B299AB
:10436C0002C030FC01C002C00E942212B39902C0EC
:10437C0031FC01C002C00E949314B49902C032FCFB
:10438C0001C002C00E948716B59902C033FC01C05F
:10439C0002C00E943D18E894B299689430F8E894F1
:1043AC00B399689431F8E894B499689432F8E89425
:1043BC00B599689433F808951A930A9300E010E0C5
:1043CC000830E0E01E07BCF4F801A8E1B2E0EE0F03
:1043DC00FF1FEA0FFB1F0F01F801A0E9B0E0EE0F81
:1043EC00FF1FAE0FBF1F0E94A026D001ED93FC93C0
:1043FC000F5F1F4FE5CF00E010E00830E0E01E0734
:10440C00BCF4F801A8E2B2E0EE0FFF1FEA0FFB1FAD
:10441C000F01F801A0EAB0E0EE0FFF1FAE0FBF1FB7
:10442C000E94A026D001ED93FC930F5F1F4FE5CFA8
:10443C0000E010E00330E0E01E07BCF4F801A8E84F
:10444C00B1E0EE0FFF1FEA0FFB1F0F01F801A0E018
:10445C00B0E0EE0FFF1FAE0FBF1F0E94A026D001D1
:10446C00ED93FC930F5F1F4FE5CF00E010E0083099
:10447C00E0E01E07BCF4F801A8E9B1E0EE0FFF1F65
:10448C00EA0FFB1F0F01F801A0E1B0E0EE0FFF1FD8
:10449C00AE0FBF1F0E94A026D001ED93FC930F5FBF
:1044AC001F4FE5CF00E010E00830E0E01E07BCF441
:1044BC00F801A8EAB1E0EE0FFF1FEA0FFB1F0F0196
:1044CC00F801A0E2B0E0EE0FFF1FAE0FBF1F0E947D
:1044DC00A026D001ED93FC930F5F1F4FE5CF00E0BA
:1044EC0010E00830E0E01E07BCF4F801A8EBB1E0E6
:1044FC00EE0FFF1FEA0FFB1F0F01F801A0E3B0E066
:10450C00EE0FFF1FAE0FBF1F0E94A026D001ED9330
:10451C00FC930F5F1F4FE5CF00E010E00830E0E0A8
:10452C001E07BCF4F801A8ECB1E0EE0FFF1FEA0F78
:10453C00FB1F0F01F801A0E4B0E0EE0FFF1FAE0F60
:10454C00BF1F0E94A026D001ED93FC930F5F1F4F5D
:10455C00E5CF00E010E00830E0E01E07BCF4F80105
:10456C00A8EDB1E0EE0FFF1FEA0FFB1F0F01F801E2
:10457C00A0E5B0E0EE0FFF1FAE0FBF1F0E94A026FC
:10458C00D001ED93FC930F5F1F4FE5CF00E010E0DF
:10459C000830E0E01E07BCF4F801A8EEB1E0EE0F25
:1045AC00FF1FEA0FFB1F0F01F801A0E6B0E0EE0FB2
:1045BC00FF1FAE0FBF1F0E94A026D001ED93FC93EE
:1045CC000F5F1F4FE5CF00E010E00830E0E01E0762
:1045DC00BCF4F801A8EFB1E0EE0FFF1FEA0FFB1FD0
:1045EC000F01F801A0E7B0E0EE0FFF1FAE0FBF1FE9
:1045FC000E94A026D001ED93FC930F5F1F4FE5CFD7
:10460C0000E010E00830E0E01E07BCF4F801A8E080
:10461C00B2E0EE0FFF1FEA0FFB1F0F01F801A0E83D
:10462C00B0E0EE0FFF1FAE0FBF1F0E94A026D001FF
:10463C00ED93FC930F5F1F4FE5CF099119910895EE
:10464C00689421F80895EFEFEABBEBBBE3ECE7BB12
:10465C00EFEFE8BBE4BBE5BBE1BBE2BBE0E0E3BFF3
:10466C00E2BFECBFEFBDE4E0EEBDEBEAEDBDE0EA8E
:10467C00ECBDE0E0E7BDE6BDEBBDEABDE9BDE8BDE4
:10468C00E2BDE5BDE4BDE3BDE4E0E9BFE0E0E5BFCC
:10469C00E4BFE2E0EBB9E8EDEAB9E6E8E0BDE0E062
:1046AC00E0BDEFE8E9B9E0E8E8B9E0E0E0BFE6B981
:1046BC00EDB9E6BF0E94D623AAEFB0E00E942724F2
:1046CC000E940C0CAAEFB0E00E9427247894089565
:1046DC00BADF72DEE0918C01F0918D01309751F1CF
:1046EC00E0918C01F0918D01E130A0E0FA0721F40A
:1046FC00E0E0E0BDE7E421C0E0918C01F0918D0198
:10470C00E230A0E0FA0721F4E0E0E0BDE3E215C0FE
:10471C00E0918C01F0918D01E330A0E0FA0721F4D7
:10472C00E0E0E0BDEBE009C0ECE8F1E0A0E0B0E0D7
:10473C00A083B183E0E0E0BDEFE8E9B9E89435F897
:10474C00B29902C0689435F892980E94D20B5ADA4A
:10475C00D4016FDCF40131964F010E948B180E943A
:10476C007819E5DD6DDFEAE0F0E08E169F06B4F017
:10477C008824992427FE12C0E89427F80E948919EE
:10478C000E94EB1120FE06C0E89420F80E94F00471
:10479C000E945F0936FE02C0E89436F8D6CFFFCFF0
:1047AC00C098C198B89AB99815C0B998B898EE271E
:1047BC000000B19B0895B09B089504D0B99A02D023
:1047CC00B89AE1E062E107C0B99AB89A03D0B898F8
:1047DC00F9DFB99865E26A95F1F7089578E0B89831
:1047EC00F1DFB09BFECFEEDF8894B1990894B89AB4
:1047FC00F1DFEE1F7A9599F77A2F772311F4B99898
:10480C0001C0B99ADFDFB898E5DFB89ADBDFB99859
:10481C00D9CF78E0AA0F10F4B99801C0B99ADADFB1
:10482C00B898D0DFB09BFECFCDDFB89A7A9591F7D0
:10483C00B998C8DFB898CEDFE1E0B199EE27B89A05
:10484C00C1CF109639F08DEC9AE00197F1F7A8954D
:10485C001197C9F70895552342F4503811F4E0FF2D
:10486C0004C03196691F791F6BF050E8572711F47B
:10487C005F93CFC05F3F31F0660F000C5795679583
:10488C00752F08955F9300200AF0CFC0C8C050E880
:10489C00192E1522880F991F9527550F879550E8CB
:1048AC00072E0522660F771F7527550F67950895FC
:1048BC00689401C0E8945F93F2DF703818F07F3F82
:1048CC0008F4A7C056E1571BAAF4519558300EF4C2
:1048DC00593030F0EFEFFFEF6FEF7FE777F91AC049
:1048EC0077275523B9F0EE0FFF1F661F771F5A95D8
:1048FC00D1F710C07727583028F0EF2FF62F672FFD
:10490C005850F9CF552331F076956795F795E79583
:10491C005A95D1F700200AF425D15F910895689437
:10492C0001C0E894309760407040B1F0002426F04C
:10493C00772312F4009416D1172E7EE1112032F059
:10494C007A95EE0FFF1F661F111CF9CFEF2FF62F74
:10495C00612D5F938ADF5F9108954F93AF01FD0145
:10496C00DA01AB01BC01CA01402D012C142E4F9170
:10497C000895EA0FFB1F681F0895E095F095609568
:10498C00EF5FFF4F6F4F08955F9381DF903871F1A8
:10499C0050E8152604C05F937ADF903839F17038EF
:1049AC0021F1572F591B2BF112F4D7DFFACF5831C5
:1049BC0018F0AA27BB278827583028F0AB2FB82F20
:1049CC0088275850F9CF552329F08695B795A79588
:1049DC005A95D9F7502D512572F0CBDF38F46795E5
:1049EC00F795E795739513F420C0B7DF3EDF5F9121
:1049FC000895D8F7FBCFEA1BFB0B680B51F010F4B2
:104A0C000094BBDF662392F3EE0FFF1F661F7A95AF
:104A1C00CBF7EE27FF27662777275F910895EFEFF7
:104A2C00FFEF6FE77FEF5F910895EFEFFFEF6FE719
:104A3C007FE75F9108955F932ADF703851F39038C8
:104A4C0041F301240894791F23F41CF300203AF35A
:104A5C00ECCF0F921F932F933F934F931127222745
:104A6C009927689FA0018F9F302D410D591F6B9F77
:104A7C00300D411D591F8E9F27D0BF9F25D06A9F97
:104A8C0023D0BE9F1DD0AF9F1BD0AE9F110D291FF1
:104A9C00391F491F591FE32FF42F652F522F4F91A8
:104AAC003F912F911F910F9066232AF0550FEE1F07
:104ABC00FF1F661F02C073954BF2CDDE5F91089508
:104ACC00100D211D391F02C0200D311D491F591F0A
:104ADC0008955F93DCDE703821F411200AF49FCF27
:104AEC00A4CF903809F495CF01240894970B1BF4AC
:104AFC00D4F30020F3CF792F1F932F933F934F9331
:104B0C0011241127222733274427552790E2AE176B
:104B1C00BF078607410730F0AE1BBF0B860B410B5E
:104B2C00089401C08894551F221F331F111CAA1F03
:104B3C00BB1F881F441F9A9551F7F901612D4F91A6
:104B4C003F912F911F91662332F0550FEE1FFF1FDF
:104B5C00661F7A9543F27FDE5F910895F195E1959A
:104B6C00F0400895F09560957095E195FF4F6F4F6B
:104B7C007F4F0895EE0FFF1FEE0FFF1F0895EF2FCD
:104B8C00FF27E7FDFFEF08956F2F660F660B762F5B
:104B9C0008958B2F880F880B982F0895FA9FF02D6E
:104BAC00EB9FF00DEA9FE02DF10D08957A9F702D8B
:104BBC006B9F700DF89F700DE99F700D6A9F602DB3
:104BCC00710DFB9F600D711DE89F600D711D882795
:104BDC00FA9FF02D610D781FEB9FF00D611D781F72
:104BEC00EA9FE02DF10D681F781F089559D0D6DF8C
:104BFC000EF4B4DF089562D0D9DF0EF4B3DF08955C
:104C0C000024112490E1AA0FBB1F001C111C0E1ACA
:104C1C001F0A18F40E0E1F1E01C0A1609A9599F779
:104C2C00FD01D00108953CD0EBDF0EF497DF089521
:104C3C003F934F935F93002411244427552730E270
:104C4C00AA0FBB1F881F991F001C111C441F551F46
:104C5C000E1A1F0A460B570B28F40E0E1F1E461F6A
:104C6C00571F01C0A1603A9559F7FD01BC01D00155
:104C7C00CA015F914F913F91089520D0D9DF0EF476
:104C8C0071DF0895E894B7FF04C0A095B095119614
:104C9C006894F7FD63DFB4DFFD010EF45FDF089568
:104CAC00E894F7FF02C05ADF6894B7FF06C0A095DE
:104CBC00B095119600F8039400FA0895E89477FFE4
:104CCC0002C050DF689497FF0BC00024A095B095EC
:104CDC00809590951196801D901D00F8039400FA14
:104CEC000895ED91FC9111970895ED93FD936D93BB
:104CFC007C9308950590F491E02D0895E883F98351
:104D0C006A837B8308957A936A93FA93EA9308955E
:104D1C009A938A93BA93AA930895182E862F612D8D
:104D2C00192E972F712D1B2EBF2FF12D1A2EAE2F52
:104D3C00E12D0895119602D0FE2F1197E199FECF27
:104D4C00FF93FFB7F894AEBBBFBBE09AEDB3FFBFC8
:104D5C00FF91089507D01196EF93EF2F03D0EF91A9
:104D6C0011970895E19B02C0A895FCCF9FB7F894CA
:104D7C00AEBBBFBBE09A8DB3E81719F0EDBBE29A5E
:104D8C00E19A9FBF08955A934A933A932A931A93A0
:104D9C000A9308955D814C813B812A811981088198
:104DAC000895AC0FBD1F05900D928A95E1F70895FB
:00000001FF
